:100000000C942A000C9447000C9447000C94470071
:100010000C9447000C9447000C94A8050C945605CA
:100020000C947F050C942D050C9447000C9447000C
:100030000C9447000C9447000C9447000C94470024
:100040000C9447000C9447000C9447000C94470014
:100050000C94470011241FBECFE5D8E0DEBFCDBF12
:1000600010E0A0E6B0E0E8EAFCE002C005900D92E6
:10007000A638B107D9F720E0A6E8B0E001C01D928C
:10008000A73DB207E1F70E9457020C9452060C9468
:100090000000813339F484EB90E0909387008093E3
:1000A000860004C01092870010928600209186007E
:1000B00030918700A8EEB3E00E94430624EB30E0C5
:1000C00040E050E00E94020629513C4F39BD28BD56
:1000D0000895813331F441E062E084E00E94350408
:1000E000089540E062E084E00E9435040895813381
:1000F00031F441E062E080E00E943504089540E080
:1001000062E080E00E9435040895813331F441E0DB
:1001100062E081E00E943504089540E062E081E001
:100120000E9435040895813331F441E062E083E0B8
:100130000E943504089540E062E083E00E943504A7
:100140000895CF93DF93D62FC42F813321F480E01D
:100150000E942D0203C080E00E944202D13321F4AC
:1001600082E00E942D0203C082E00E944202C1335D
:1001700021F481E00E942D0203C081E00E9442022E
:10018000DF91CF910895CF93C82F60E081E00E9466
:10019000A0036C2F661F6627661F86E00E94A003DF
:1001A000C6FB662760F985E00E94A003C5FB6627B1
:1001B00060F984E00E94A003C4FB662760F983E035
:1001C0000E94A00361E082E00E94A0038FEC97E010
:1001D0000197F1F700C0000060E082E00E94A003F8
:1001E0008FEC97E00197F1F700C00000C3FB662792
:1001F00060F986E00E94A003C2FB662760F985E0F3
:100200000E94A003C1FB662760F984E00E94A0035E
:100210006C2F617083E00E94A00361E082E00E9485
:10022000A0038FEC97E00197F1F700C0000060E0B9
:1002300082E00E94A0038FEC97E00197F1F700C0E5
:100240000000CF910895CF93C82F61E081E00E9414
:10025000A0036C2F661F6627661F86E00E94A0031E
:10026000C6FB662760F985E00E94A003C5FB6627F0
:1002700060F984E00E94A003C4FB662760F983E074
:100280000E94A00361E082E00E94A0038FEC97E04F
:100290000197F1F700C0000060E082E00E94A00337
:1002A0008FEC97E00197F1F700C00000C3FB6627D1
:1002B00060F986E00E94A003C2FB662760F985E032
:1002C0000E94A003C1FB662760F984E00E94A0039E
:1002D0006C2F617083E00E94A00361E082E00E94C5
:1002E000A0038FEC97E00197F1F700C0000060E0F9
:1002F00082E00E94A0038FEC97E00197F1F700C025
:100300000000CF9108952FE788E391E021508040CD
:100310009040E1F700C0000082E00E94C30088E244
:100320000E94C3008CE00E94C30081E00E94C300D1
:100330008FEC97E00197F1F700C0000086E00E9483
:10034000C30008950E94230108950F931F93CF9334
:100350008C01C0E003C00E942301CF5FF801EC0FC5
:10036000F11D80818111F7CFCF911F910F910895D9
:10037000CF92DF92EF92FF921F93CF93DF93CDB78F
:10038000DEB764970FB6F894DEBF0FBECDBF6B012A
:100390007C01611571058105910521F480E30E94BE
:1003A000A2013BC099235CF4F094E094D094C094F3
:1003B000C11CD11CE11CF11C8DE20E94A20110E0C5
:1003C00015C0C701B6012AE030E040E050E00E94CD
:1003D0002406E1E0F0E0EC0FFD1FE10FF11D605D90
:1003E0006083C22ED32EE42EF52E1F5F1C141D0435
:1003F0001E041F0434F3FF24FA94F10E0CC0E1E054
:10040000F0E0EC0FFD1FEF0DF11DF7FCFA95808178
:100410000E94A201FA94FF2094F764960FB6F89414
:10042000DEBF0FBECDBFDF91CF911F91FF90EF9048
:10043000DF90CF900895811105C0862F80680E94BB
:10044000C3000895813021F480EC860F0E94C30020
:10045000089581E00E94C3000895813071F018F082
:10046000823031F0089561E088E00E94A003089591
:1004700061E08AE00E94A003089561E089E00E94A3
:10048000A0030895813071F018F0823031F00895A2
:1004900060E088E00E94A003089560E08AE00E9486
:1004A000A003089560E089E00E94A00308950E94DF
:1004B00025040E9483010E94D10562E084E00E942D
:1004C000B50482E00E9409058FE19EE49BBD8ABDD0
:1004D00087EE93E099BD88BD789460E080E00E944B
:1004E0001B0280E690E00E94A5010E94290261E0C3
:1004F00081E00E941B0260E070E0CB010E94B80125
:1005000060E080E00E941B0288E890E00E94E10524
:100510000E94DD058093D600C8E8D0E08E810E945D
:1005200049008E850E9469008E890E9477008E8D19
:100530000E9485008EA10E9493004EAD6EA98EA5EB
:100540000E94A100D4CF982F969596959695877086
:10055000613009F455C020F0623009F4A1C008955B
:100560009130C1F028F0923039F19330B9F108950B
:100570004AB321E030E0B90102C0660F771F8A95C7
:10058000E2F7CB01942F982B9ABB9BB380958923DC
:100590008BBB089547B321E030E0B90102C0660F7C
:1005A000771F8A95E2F7CB01942F982B97BB98B3CE
:1005B0008095892388BB089544B321E030E0B901D8
:1005C00002C0660F771F8A95E2F7CB01942F982B14
:1005D00094BB95B38095892385BB089541B321E0F1
:1005E00030E0B90102C0660F771F8A95E2F7CB01B0
:1005F000942F982B91BB92B38095892382BB089549
:100600009130C1F028F0923039F19330B9F108956A
:100610004AB321E030E0B90102C0660F771F8A9526
:10062000E2F7CB018095942F98239ABB9BB3892343
:100630008BBB089547B321E030E0B90102C0660FDB
:10064000771F8A95E2F7CB018095942F982397BB6B
:1006500098B3892388BB089544B321E030E0B90101
:1006600002C0660F771F8A95E2F7CB018095942F21
:10067000982394BB95B3892385BB089541B321E0AA
:1006800030E0B90102C0660F771F8A95E2F7CB010F
:100690008095942F982391BB92B3892382BB0895B0
:1006A0009130C1F028F0923039F19330B9F10895CA
:1006B0004AB321E030E0B90102C0660F771F8A9586
:1006C000E2F7CB01962F909594239ABB9BB3892B8D
:1006D0008BBB089547B321E030E0B90102C0660F3B
:1006E000771F8A95E2F7CB01962F9095942397BBBD
:1006F00098B3892B88BB089544B321E030E0B90159
:1007000002C0660F771F8A95E2F7CB01962F90956E
:10071000942394BB95B3892B85BB089541B321E005
:1007200030E0B90102C0660F771F8A95E2F7CB016E
:10073000962F9095942391BB92B3892B82BB0895F9
:10074000982F96959695969587706130E1F5913042
:1007500099F028F09230E9F0933041F108954BB3CD
:1007600021E030E0B90102C0660F771F8A95E2F7F9
:10077000CB01842B8BBB089548B321E030E0B90155
:1007800002C0660F771F8A95E2F7CB01842B88BBE6
:10079000089545B321E030E0B90102C0660F771F2C
:1007A0008A95E2F7CB01842B85BB089542B321E003
:1007B00030E0B90102C0660F771F8A95E2F7CB01DE
:1007C000842B82BB089561113FC09130A1F028F0C5
:1007D0009230F9F0933059F108954BB321E030E0B5
:1007E000B90102C0660F771F8A95E2F7CB018095A9
:1007F00084238BBB089548B321E030E0B90102C0E7
:10080000660F771F8A95E2F7CB018095842388BB1A
:10081000089545B321E030E0B90102C0660F771FAB
:100820008A95E2F7CB018095842385BB089542B376
:1008300021E030E0B90102C0660F771F8A95E2F728
:10084000CB018095842382BB0895CF93C0E009C07B
:10085000EC2FF0E0EA59FF4F60818C2F0E94A30239
:10086000CF5FC032A8F3CF9108954130E1F56130F8
:1008700099F028F06230E9F0633041F108954BB30C
:1008800021E030E0B90102C0660F771F8A95E2F7D8
:10089000CB01842B8BBB089548B321E030E0B90134
:1008A00002C0660F771F8A95E2F7CB01842B88BBC5
:1008B000089545B321E030E0B90102C0660F771F0B
:1008C0008A95E2F7CB01842B85BB089542B321E0E2
:1008D00030E0B90102C0660F771F8A95E2F7CB01BD
:1008E000842B82BB089541113FC06130A1F028F0F4
:1008F0006230F9F0633059F108954BB321E030E0F4
:10090000B90102C0660F771F8A95E2F7CB01809587
:1009100084238BBB089548B321E030E0B90102C0C5
:10092000660F771F8A95E2F7CB018095842388BBF9
:10093000089545B321E030E0B90102C0660F771F8A
:100940008A95E2F7CB018095842385BB089542B355
:1009500021E030E0B90102C0660F771F8A95E2F707
:10096000CB018095842382BB0895823029F128F43D
:10097000882341F0813099F045C0833051F18430B3
:10098000A9F140C08FB58E7F8FBD8FB58D7F8FBD94
:100990008EB5877F8EBD8EB58F7E8EBD33C08FB5F1
:1009A0008E7F8FBD8FB58D7F8FBD8EB588608EBDDC
:1009B0008EB580618EBD26C08FB58E7F8FBD8FB501
:1009C0008D7F8FBD8EB588608EBD8EB58F7E8EBDBE
:1009D00019C08FB58E7F8FBD8FB582608FBD8EB5EC
:1009E00088608EBD8EB580618EBD0CC08FB5816074
:1009F0008FBD8FB582608FBD8EB588608EBD8EB580
:100A000080618EBD8EB5887F8EBD8EB5682B6EBD24
:100A10000895813069F028F0823089F08330B1F098
:100A200008958FB58F7E8FBD8FB58F7D8FBD089553
:100A30008FB580618FBD8FB58F7D8FBD08958FB5C8
:100A40008F7E8FBD8FB580628FBD08958FB5806119
:100A50008FBD8FB580628FBD08951F920F920FB624
:100A60000F9211242F933F934F935F936F937F9334
:100A70008F939F93AF93BF93EF93FF93E091D40035
:100A8000F091D500309709F00995FF91EF91BF9152
:100A9000AF919F918F917F916F915F914F913F9116
:100AA0002F910F900FBE0F901F9018951F920F92CD
:100AB0000FB60F9211242F933F934F935F936F9331
:100AC0007F938F939F93AF93BF93EF93FF93E091A7
:100AD000D200F091D300309709F00995FF91EF9182
:100AE000BF91AF919F918F917F916F915F914F9146
:100AF0003F912F910F900FBE0F901F9018951F924E
:100B00000F920FB60F9211242F933F934F935F9341
:100B10006F937F938F939F93AF93BF93EF93FF93C5
:100B2000E091D000F091D100309709F00995FF9144
:100B3000EF91BF91AF919F918F917F916F915F9155
:100B40004F913F912F910F900FBE0F901F901895CE
:100B50001F920F920FB60F9211242F933F934F9332
:100B60005F936F937F938F939F93AF93BF93EF9315
:100B7000FF93E091CE00F091CF00309709F00995F6
:100B8000FF91EF91BF91AF919F918F917F916F9165
:100B90005F914F913F912F910F900FBE0F901F903B
:100BA000189583E389B98BB18D7F8BB98AB1886041
:100BB0008AB98AB180618AB908955F9BFECF8CB1F2
:100BC0000895EF92FF920F931F93CF938C010E9491
:100BD000DD05F8018083C0E008C0CF5F7801EC0E2E
:100BE000F11C0E94DD05F7018083F801EC0FF11D77
:100BF00080818D3091F71082CF911F910F91FF90DE
:100C0000EF900895A1E21A2EAA1BBB1BFD010DC097
:100C1000AA1FBB1FEE1FFF1FA217B307E407F507AC
:100C200020F0A21BB30BE40BF50B661F771F881F88
:100C3000991F1A9469F760957095809590959B011E
:100C4000AC01BD01CF010895052E97FB1EF4009461
:100C50000E943B0657FD07D00E94020607FC03D006
:100C60004EF40C943B0650954095309521953F4F9E
:100C70004F4F5F4F089590958095709561957F4F88
:100C80008F4F9F4F0895A29FB001B39FC001A39FB4
:100C9000700D811D1124911DB29F700D811D1124B5
:080CA000911D0895F894FFCFA7
:100CA80068656C6C6F000100000000000001000026
:100CB8000000000000000000000000000000020228
:060CC8000202020200001E
:00000001FF
